{
  "contractName": "Contest",
  "abi": [
    {
      "anonymous": false,
      "inputs": [
        {
          "indexed": false,
          "internalType": "uint256",
          "name": "id",
          "type": "uint256"
        },
        {
          "indexed": false,
          "internalType": "string",
          "name": "name",
          "type": "string"
        },
        {
          "indexed": false,
          "internalType": "uint256",
          "name": "voteCount",
          "type": "uint256"
        },
        {
          "indexed": false,
          "internalType": "string",
          "name": "party",
          "type": "string"
        },
        {
          "indexed": false,
          "internalType": "uint256",
          "name": "age",
          "type": "uint256"
        },
        {
          "indexed": false,
          "internalType": "string",
          "name": "qualification",
          "type": "string"
        }
      ],
      "name": "ContestantAdded",
      "type": "event"
    },
    {
      "anonymous": false,
      "inputs": [
        {
          "indexed": false,
          "internalType": "bool",
          "name": "hasVoted",
          "type": "bool"
        },
        {
          "indexed": false,
          "internalType": "uint256",
          "name": "vote",
          "type": "uint256"
        },
        {
          "indexed": false,
          "internalType": "bool",
          "name": "isRegistered",
          "type": "bool"
        }
      ],
      "name": "VoterAdded",
      "type": "event"
    },
    {
      "constant": true,
      "inputs": [
        {
          "internalType": "uint256",
          "name": "",
          "type": "uint256"
        }
      ],
      "name": "contestants",
      "outputs": [
        {
          "internalType": "uint256",
          "name": "id",
          "type": "uint256"
        },
        {
          "internalType": "string",
          "name": "name",
          "type": "string"
        },
        {
          "internalType": "uint256",
          "name": "voteCount",
          "type": "uint256"
        },
        {
          "internalType": "string",
          "name": "party",
          "type": "string"
        },
        {
          "internalType": "uint256",
          "name": "age",
          "type": "uint256"
        },
        {
          "internalType": "string",
          "name": "qualification",
          "type": "string"
        }
      ],
      "payable": false,
      "stateMutability": "view",
      "type": "function"
    },
    {
      "constant": true,
      "inputs": [],
      "name": "contestantsCount",
      "outputs": [
        {
          "internalType": "uint256",
          "name": "",
          "type": "uint256"
        }
      ],
      "payable": false,
      "stateMutability": "view",
      "type": "function"
    },
    {
      "constant": true,
      "inputs": [
        {
          "internalType": "address",
          "name": "",
          "type": "address"
        }
      ],
      "name": "voters",
      "outputs": [
        {
          "internalType": "bool",
          "name": "hasVoted",
          "type": "bool"
        },
        {
          "internalType": "uint256",
          "name": "vote",
          "type": "uint256"
        },
        {
          "internalType": "bool",
          "name": "isRegistered",
          "type": "bool"
        }
      ],
      "payable": false,
      "stateMutability": "view",
      "type": "function"
    },
    {
      "constant": false,
      "inputs": [
        {
          "internalType": "string",
          "name": "_name",
          "type": "string"
        },
        {
          "internalType": "string",
          "name": "_party",
          "type": "string"
        },
        {
          "internalType": "uint256",
          "name": "_age",
          "type": "uint256"
        },
        {
          "internalType": "string",
          "name": "_qualification",
          "type": "string"
        }
      ],
      "name": "addCandidate",
      "outputs": [],
      "payable": false,
      "stateMutability": "nonpayable",
      "type": "function"
    },
    {
      "constant": false,
      "inputs": [
        {
          "internalType": "address",
          "name": "user",
          "type": "address"
        }
      ],
      "name": "voterRegisteration",
      "outputs": [],
      "payable": false,
      "stateMutability": "nonpayable",
      "type": "function"
    },
    {
      "constant": false,
      "inputs": [
        {
          "internalType": "uint256",
          "name": "_contestantId",
          "type": "uint256"
        }
      ],
      "name": "vote",
      "outputs": [],
      "payable": false,
      "stateMutability": "nonpayable",
      "type": "function"
    },
    {
      "constant": false,
      "inputs": [
        {
          "internalType": "address",
          "name": "addr",
          "type": "address"
        }
      ],
      "name": "voterInfo",
      "outputs": [
        {
          "internalType": "bool",
          "name": "",
          "type": "bool"
        }
      ],
      "payable": false,
      "stateMutability": "nonpayable",
      "type": "function"
    }
  ],
  "bytecode": "0x60806040526000805534801561001457600080fd5b50610d95806100246000396000f3fe608060405234801561001057600080fd5b506004361061007d5760003560e01c8063c286d9231161005b578063c286d92314610162578063cdf58d3514610355578063dfd50f52146103b1578063ec63d1c8146105455761007d565b80630121b93f14610082578063698ceb5f146100b0578063a3ec138d146100f4575b600080fd5b6100ae6004803603602081101561009857600080fd5b8101908080359060200190929190505050610563565b005b6100f2600480360360208110156100c657600080fd5b81019080803573ffffffffffffffffffffffffffffffffffffffff1690602001909291905050506106fc565b005b6101366004803603602081101561010a57600080fd5b81019080803573ffffffffffffffffffffffffffffffffffffffff1690602001909291905050506107ab565b604051808415151515815260200183815260200182151515158152602001935050505060405180910390f35b6103536004803603608081101561017857600080fd5b810190808035906020019064010000000081111561019557600080fd5b8201836020820111156101a757600080fd5b803590602001918460018302840111640100000000831117156101c957600080fd5b91908080601f016020809104026020016040519081016040528093929190818152602001838380828437600081840152601f19601f8201169050808301925050505050505091929192908035906020019064010000000081111561022c57600080fd5b82018360208201111561023e57600080fd5b8035906020019184600183028401116401000000008311171561026057600080fd5b91908080601f016020809104026020016040519081016040528093929190818152602001838380828437600081840152601f19601f82011690508083019250505050505050919291929080359060200190929190803590602001906401000000008111156102cd57600080fd5b8201836020820111156102df57600080fd5b8035906020019184600183028401116401000000008311171561030157600080fd5b91908080601f016020809104026020016040519081016040528093929190818152602001838380828437600081840152601f19601f8201169050808301925050505050505091929192905050506107ef565b005b6103976004803603602081101561036b57600080fd5b81019080803573ffffffffffffffffffffffffffffffffffffffff169060200190929190505050610a53565b604051808215151515815260200191505060405180910390f35b6103dd600480360360208110156103c757600080fd5b8101908080359060200190929190505050610ab1565b60405180878152602001806020018681526020018060200185815260200180602001848103845289818151815260200191508051906020019080838360005b8381101561043757808201518184015260208101905061041c565b50505050905090810190601f1680156104645780820380516001836020036101000a031916815260200191505b50848103835287818151815260200191508051906020019080838360005b8381101561049d578082015181840152602081019050610482565b50505050905090810190601f1680156104ca5780820380516001836020036101000a031916815260200191505b50848103825285818151815260200191508051906020019080838360005b838110156105035780820151818401526020810190506104e8565b50505050905090810190601f1680156105305780820380516001836020036101000a031916815260200191505b50995050505050505050505060405180910390f35b61054d610cb5565b6040518082815260200191505060405180910390f35b60008111801561057557506000548111155b61057e57600080fd5b600260003373ffffffffffffffffffffffffffffffffffffffff1673ffffffffffffffffffffffffffffffffffffffff16815260200190815260200160002060020160009054906101000a900460ff166105d757600080fd5b600260003373ffffffffffffffffffffffffffffffffffffffff1673ffffffffffffffffffffffffffffffffffffffff16815260200190815260200160002060000160009054906101000a900460ff161561063157600080fd5b60016000828152602001908152602001600020600201600081548092919060010191905055506001600260003373ffffffffffffffffffffffffffffffffffffffff1673ffffffffffffffffffffffffffffffffffffffff16815260200190815260200160002060000160006101000a81548160ff02191690831515021790555080600260003373ffffffffffffffffffffffffffffffffffffffff1673ffffffffffffffffffffffffffffffffffffffff1681526020019081526020016000206001018190555050565b6001600260008373ffffffffffffffffffffffffffffffffffffffff1673ffffffffffffffffffffffffffffffffffffffff16815260200190815260200160002060020160006101000a81548160ff0219169083151502179055507fdf5908dcc726f53418f5143b5c000a21d05ebc39c49b81c1144035e135e9915e6000806001604051808415151515815260200183815260200182151515158152602001935050505060405180910390a150565b60026020528060005260406000206000915090508060000160009054906101000a900460ff16908060010154908060020160009054906101000a900460ff16905083565b60008081548092919060010191905055506040518060c0016040528060005481526020018581526020016000815260200184815260200183815260200182815250600160008054815260200190815260200160002060008201518160000155602082015181600101908051906020019061086a929190610cbb565b50604082015181600201556060820151816003019080519060200190610891929190610cbb565b506080820151816004015560a08201518160050190805190602001906108b8929190610cbb565b509050507f781e2a277ff37e21aa107689edcd046a9e1a7f2ea980e0b8719d68eec80a8c2160005485600086868660405180878152602001806020018681526020018060200185815260200180602001848103845289818151815260200191508051906020019080838360005b83811015610940578082015181840152602081019050610925565b50505050905090810190601f16801561096d5780820380516001836020036101000a031916815260200191505b50848103835287818151815260200191508051906020019080838360005b838110156109a657808201518184015260208101905061098b565b50505050905090810190601f1680156109d35780820380516001836020036101000a031916815260200191505b50848103825285818151815260200191508051906020019080838360005b83811015610a0c5780820151818401526020810190506109f1565b50505050905090810190601f168015610a395780820380516001836020036101000a031916815260200191505b50995050505050505050505060405180910390a150505050565b600080600260008473ffffffffffffffffffffffffffffffffffffffff1673ffffffffffffffffffffffffffffffffffffffff16815260200190815260200160002060000160009054906101000a900460ff16905080915050919050565b6001602052806000526040600020600091509050806000015490806001018054600181600116156101000203166002900480601f016020809104026020016040519081016040528092919081815260200182805460018160011615610100020316600290048015610b635780601f10610b3857610100808354040283529160200191610b63565b820191906000526020600020905b815481529060010190602001808311610b4657829003601f168201915b505050505090806002015490806003018054600181600116156101000203166002900480601f016020809104026020016040519081016040528092919081815260200182805460018160011615610100020316600290048015610c075780601f10610bdc57610100808354040283529160200191610c07565b820191906000526020600020905b815481529060010190602001808311610bea57829003601f168201915b505050505090806004015490806005018054600181600116156101000203166002900480601f016020809104026020016040519081016040528092919081815260200182805460018160011615610100020316600290048015610cab5780601f10610c8057610100808354040283529160200191610cab565b820191906000526020600020905b815481529060010190602001808311610c8e57829003601f168201915b5050505050905086565b60005481565b828054600181600116156101000203166002900490600052602060002090601f016020900481019282601f10610cfc57805160ff1916838001178555610d2a565b82800160010185558215610d2a579182015b82811115610d29578251825591602001919060010190610d0e565b5b509050610d379190610d3b565b5090565b610d5d91905b80821115610d59576000816000905550600101610d41565b5090565b9056fea265627a7a723158209f8f60329c6a366916041bffa409175effdf1a9f2a4bbf8fb548ef05c61678f164736f6c63430005100032",
  "source": "pragma solidity 0.5.16;\r\n\r\ncontract Contest{\r\n\t//store candidate/contestant\r\n\t\r\n\tstruct Contestant {\r\n\t\tuint id;\r\n\t\tstring name;\r\n\t\tuint voteCount;\r\n\t\tstring party;\r\n\t\tuint age;\r\n\t\tstring qualification;\r\n\t}\r\n\r\n\t//store voter\r\n\r\n\tstruct Voter{\r\n\t\tbool hasVoted;\r\n\t \tuint vote;\r\n\t \tbool isRegistered;\r\n\t}\r\n\r\n\tuint public contestantsCount = 0;\r\n\tmapping(uint => Contestant) public contestants;\r\n    mapping(address => Voter) public voters;\r\n\t\r\n\t// *************************************************************\r\n\r\n\r\n\tevent ContestantAdded (\r\n\t\tuint id,\r\n\t\tstring name,\r\n\t\tuint voteCount,\r\n\t\tstring party,\r\n\t\tuint age,\r\n\t\tstring qualification\r\n\t);\r\n\r\n\tevent VoterAdded (\r\n\t\tbool hasVoted,\r\n\t\tuint vote,\r\n\t\tbool isRegistered\r\n\t);\r\n\r\n\r\n\t// ****************************************************************\r\n\r\n\t//add candidates\r\n\t\r\n\tfunction addCandidate(string memory _name, string memory _party, uint _age, string memory _qualification) public {\r\n\t\tcontestantsCount ++;\r\n\r\n\t\tcontestants[contestantsCount] = Contestant(contestantsCount, _name, 0, _party, _age, _qualification);\r\n\r\n\t\temit ContestantAdded(contestantsCount, _name, 0, _party, _age, _qualification);\r\n\t}\r\n\r\n\t//add voter\r\n\r\n\tfunction voterRegisteration(address user) public {\r\n\t\tvoters[user].isRegistered=true;\r\n\r\n\t\temit VoterAdded(false,0,true);\r\n\t}\r\n\r\n\t// vote\r\n\tfunction vote(uint _contestantId) public {\r\n\t\trequire(_contestantId > 0 && _contestantId<=contestantsCount);\r\n\t\trequire(voters[msg.sender].isRegistered);\r\n\t\trequire(!voters[msg.sender].hasVoted);\r\n\r\n\t\tcontestants[_contestantId].voteCount++;\r\n\t\tvoters[msg.sender].hasVoted=true;\r\n\t\tvoters[msg.sender].vote=_contestantId;\r\n\t}\r\n\r\n\r\n\tfunction voterInfo(address addr) public returns(bool) {\r\n        bool hasVotedCheck =  voters[addr].hasVoted;\r\n\t\treturn hasVotedCheck;\r\n    }\r\n} \t\r\n\r\n",
  "sourcePath": "D:\\VoteBlock-app\\contracts\\Contest.sol",
  "compiler": {
    "name": "solc",
    "version": "0.5.16+commit.9c3226ce.Emscripten.clang"
  },
  "schemaVersion": "3.4.10",
  "updatedAt": "2022-11-09T12:36:15.644Z",
  "networkType": "ethereum",
  "devdoc": {
    "methods": {}
  },
  "userdoc": {
    "methods": {}
  }
}