{
  "contractName": "Contest",
  "abi": [
    {
      "anonymous": false,
      "inputs": [
        {
          "indexed": false,
          "internalType": "uint256",
          "name": "id",
          "type": "uint256"
        },
        {
          "indexed": false,
          "internalType": "string",
          "name": "name",
          "type": "string"
        },
        {
          "indexed": false,
          "internalType": "uint256",
          "name": "voteCount",
          "type": "uint256"
        },
        {
          "indexed": false,
          "internalType": "string",
          "name": "party",
          "type": "string"
        },
        {
          "indexed": false,
          "internalType": "uint256",
          "name": "age",
          "type": "uint256"
        },
        {
          "indexed": false,
          "internalType": "string",
          "name": "qualification",
          "type": "string"
        }
      ],
      "name": "ContestantAdded",
      "type": "event"
    },
    {
      "anonymous": false,
      "inputs": [
        {
          "indexed": false,
          "internalType": "uint256",
          "name": "id",
          "type": "uint256"
        },
        {
          "indexed": false,
          "internalType": "string",
          "name": "name",
          "type": "string"
        },
        {
          "indexed": false,
          "internalType": "uint256",
          "name": "voteCount",
          "type": "uint256"
        },
        {
          "indexed": false,
          "internalType": "string",
          "name": "party",
          "type": "string"
        },
        {
          "indexed": false,
          "internalType": "uint256",
          "name": "age",
          "type": "uint256"
        },
        {
          "indexed": false,
          "internalType": "string",
          "name": "qualification",
          "type": "string"
        }
      ],
      "name": "Voted",
      "type": "event"
    },
    {
      "constant": true,
      "inputs": [
        {
          "internalType": "uint256",
          "name": "",
          "type": "uint256"
        }
      ],
      "name": "contestants",
      "outputs": [
        {
          "internalType": "uint256",
          "name": "id",
          "type": "uint256"
        },
        {
          "internalType": "string",
          "name": "name",
          "type": "string"
        },
        {
          "internalType": "uint256",
          "name": "voteCount",
          "type": "uint256"
        },
        {
          "internalType": "string",
          "name": "party",
          "type": "string"
        },
        {
          "internalType": "uint256",
          "name": "age",
          "type": "uint256"
        },
        {
          "internalType": "string",
          "name": "qualification",
          "type": "string"
        }
      ],
      "payable": false,
      "stateMutability": "view",
      "type": "function"
    },
    {
      "constant": true,
      "inputs": [],
      "name": "contestantsCount",
      "outputs": [
        {
          "internalType": "uint256",
          "name": "",
          "type": "uint256"
        }
      ],
      "payable": false,
      "stateMutability": "view",
      "type": "function"
    },
    {
      "constant": true,
      "inputs": [],
      "name": "name",
      "outputs": [
        {
          "internalType": "string",
          "name": "",
          "type": "string"
        }
      ],
      "payable": false,
      "stateMutability": "view",
      "type": "function"
    },
    {
      "constant": false,
      "inputs": [
        {
          "internalType": "string",
          "name": "_name",
          "type": "string"
        },
        {
          "internalType": "string",
          "name": "_party",
          "type": "string"
        },
        {
          "internalType": "uint256",
          "name": "_age",
          "type": "uint256"
        },
        {
          "internalType": "string",
          "name": "_qualification",
          "type": "string"
        }
      ],
      "name": "addCandidate",
      "outputs": [],
      "payable": false,
      "stateMutability": "nonpayable",
      "type": "function"
    },
    {
      "constant": false,
      "inputs": [
        {
          "internalType": "uint256",
          "name": "_contestantId",
          "type": "uint256"
        }
      ],
      "name": "vote",
      "outputs": [],
      "payable": false,
      "stateMutability": "nonpayable",
      "type": "function"
    }
  ],
  "bytecode": "0x60806040526040518060400160405280600681526020017f416e6b75736800000000000000000000000000000000000000000000000000008152506000908051906020019061004f929190610067565b50600c60015534801561006157600080fd5b5061010c565b828054600181600116156101000203166002900490600052602060002090601f016020900481019282601f106100a857805160ff19168380011785556100d6565b828001600101855582156100d6579182015b828111156100d55782518255916020019190600101906100ba565b5b5090506100e391906100e7565b5090565b61010991905b808211156101055760008160009055506001016100ed565b5090565b90565b610d2e8061011b6000396000f3fe608060405234801561001057600080fd5b50600436106100575760003560e01c80630121b93f1461005c57806306fdde031461008a578063c286d9231461010d578063dfd50f5214610300578063ec63d1c814610494575b600080fd5b6100886004803603602081101561007257600080fd5b81019080803590602001909291905050506104b2565b005b610092610746565b6040518080602001828103825283818151815260200191508051906020019080838360005b838110156100d25780820151818401526020810190506100b7565b50505050905090810190601f1680156100ff5780820380516001836020036101000a031916815260200191505b509250505060405180910390f35b6102fe6004803603608081101561012357600080fd5b810190808035906020019064010000000081111561014057600080fd5b82018360208201111561015257600080fd5b8035906020019184600183028401116401000000008311171561017457600080fd5b91908080601f016020809104026020016040519081016040528093929190818152602001838380828437600081840152601f19601f820116905080830192505050505050509192919290803590602001906401000000008111156101d757600080fd5b8201836020820111156101e957600080fd5b8035906020019184600183028401116401000000008311171561020b57600080fd5b91908080601f016020809104026020016040519081016040528093929190818152602001838380828437600081840152601f19601f820116905080830192505050505050509192919290803590602001909291908035906020019064010000000081111561027857600080fd5b82018360208201111561028a57600080fd5b803590602001918460018302840111640100000000831117156102ac57600080fd5b91908080601f016020809104026020016040519081016040528093929190818152602001838380828437600081840152601f19601f8201169050808301925050505050505091929192905050506107e4565b005b61032c6004803603602081101561031657600080fd5b8101908080359060200190929190505050610a4a565b60405180878152602001806020018681526020018060200185815260200180602001848103845289818151815260200191508051906020019080838360005b8381101561038657808201518184015260208101905061036b565b50505050905090810190601f1680156103b35780820380516001836020036101000a031916815260200191505b50848103835287818151815260200191508051906020019080838360005b838110156103ec5780820151818401526020810190506103d1565b50505050905090810190601f1680156104195780820380516001836020036101000a031916815260200191505b50848103825285818151815260200191508051906020019080838360005b83811015610452578082015181840152602081019050610437565b50505050905090810190601f16801561047f5780820380516001836020036101000a031916815260200191505b50995050505050505050505060405180910390f35b61049c610c4e565b6040518082815260200191505060405180910390f35b6000811180156104c457506001548111155b6104cd57600080fd5b60026000828152602001908152602001600020600201600081548092919060010191905055507f058700fb4d5e64668994c20a39fe7dc600d1d76cae74c8b0b1b0e307e41f4cd88160026000848152602001908152602001600020600101600260008581526020019081526020016000206002015460026000868152602001908152602001600020600301600260008781526020019081526020016000206004015460026000888152602001908152602001600020600501604051808781526020018060200186815260200180602001858152602001806020018481038452898181546001816001161561010002031660029004815260200191508054600181600116156101000203166002900480156106285780601f106105fd57610100808354040283529160200191610628565b820191906000526020600020905b81548152906001019060200180831161060b57829003601f168201915b50508481038352878181546001816001161561010002031660029004815260200191508054600181600116156101000203166002900480156106ab5780601f10610680576101008083540402835291602001916106ab565b820191906000526020600020905b81548152906001019060200180831161068e57829003601f168201915b505084810382528581815460018160011615610100020316600290048152602001915080546001816001161561010002031660029004801561072e5780601f106107035761010080835404028352916020019161072e565b820191906000526020600020905b81548152906001019060200180831161071157829003601f168201915b5050995050505050505050505060405180910390a150565b60008054600181600116156101000203166002900480601f0160208091040260200160405190810160405280929190818152602001828054600181600116156101000203166002900480156107dc5780601f106107b1576101008083540402835291602001916107dc565b820191906000526020600020905b8154815290600101906020018083116107bf57829003601f168201915b505050505081565b6001600081548092919060010191905055506040518060c0016040528060015481526020018581526020016000815260200184815260200183815260200182815250600260006001548152602001908152602001600020600082015181600001556020820151816001019080519060200190610861929190610c54565b50604082015181600201556060820151816003019080519060200190610888929190610c54565b506080820151816004015560a08201518160050190805190602001906108af929190610c54565b509050507f781e2a277ff37e21aa107689edcd046a9e1a7f2ea980e0b8719d68eec80a8c2160015485600086868660405180878152602001806020018681526020018060200185815260200180602001848103845289818151815260200191508051906020019080838360005b8381101561093757808201518184015260208101905061091c565b50505050905090810190601f1680156109645780820380516001836020036101000a031916815260200191505b50848103835287818151815260200191508051906020019080838360005b8381101561099d578082015181840152602081019050610982565b50505050905090810190601f1680156109ca5780820380516001836020036101000a031916815260200191505b50848103825285818151815260200191508051906020019080838360005b83811015610a035780820151818401526020810190506109e8565b50505050905090810190601f168015610a305780820380516001836020036101000a031916815260200191505b50995050505050505050505060405180910390a150505050565b6002602052806000526040600020600091509050806000015490806001018054600181600116156101000203166002900480601f016020809104026020016040519081016040528092919081815260200182805460018160011615610100020316600290048015610afc5780601f10610ad157610100808354040283529160200191610afc565b820191906000526020600020905b815481529060010190602001808311610adf57829003601f168201915b505050505090806002015490806003018054600181600116156101000203166002900480601f016020809104026020016040519081016040528092919081815260200182805460018160011615610100020316600290048015610ba05780601f10610b7557610100808354040283529160200191610ba0565b820191906000526020600020905b815481529060010190602001808311610b8357829003601f168201915b505050505090806004015490806005018054600181600116156101000203166002900480601f016020809104026020016040519081016040528092919081815260200182805460018160011615610100020316600290048015610c445780601f10610c1957610100808354040283529160200191610c44565b820191906000526020600020905b815481529060010190602001808311610c2757829003601f168201915b5050505050905086565b60015481565b828054600181600116156101000203166002900490600052602060002090601f016020900481019282601f10610c9557805160ff1916838001178555610cc3565b82800160010185558215610cc3579182015b82811115610cc2578251825591602001919060010190610ca7565b5b509050610cd09190610cd4565b5090565b610cf691905b80821115610cf2576000816000905550600101610cda565b5090565b9056fea265627a7a72315820e625f1efba51230d12fa80e19d30d05414210dc3939feab4f5e04b81a0be0df764736f6c63430005100032",
  "source": "pragma solidity 0.5.16;\r\n\r\ncontract Contest{\r\n\tstring public name = \"Ankush\";\r\n\r\n\t//store candidates\r\n\tuint public contestantsCount = 12;\r\n\tmapping(uint => Contestant) public contestants;\r\n\r\n\tstruct Contestant {\r\n\t\tuint id;\r\n\t\tstring name;\r\n\t\tuint voteCount;\r\n\t\tstring party;\r\n\t\tuint age;\r\n\t\tstring qualification;\r\n\t}\r\n\t//store voters\r\n\t// mapping(address => Voter) public voters;\r\n\r\n\t// struct Voter{\r\n\t// \tbool hasVoted;\r\n\t// \tuint vote;\r\n\t// \tbool isRegistered;\r\n\t// }\r\n\r\n\t//for testing purpose\r\n\r\n\tevent ContestantAdded (\r\n\t\tuint id,\r\n\t\tstring name,\r\n\t\tuint voteCount,\r\n\t\tstring party,\r\n\t\tuint age,\r\n\t\tstring qualification\r\n\t);\r\n\r\n\tevent Voted(\r\n\t\tuint id,\r\n\t\tstring name,\r\n\t\tuint voteCount,\r\n\t\tstring party,\r\n\t\tuint age,\r\n\t\tstring qualification\r\n\t);\r\n\r\n\t//add candidates\r\n\t\r\n\tfunction addCandidate(string memory _name, string memory _party, uint _age, string memory _qualification) public {\r\n\t\tcontestantsCount ++;\r\n\r\n\t\tcontestants[contestantsCount] = Contestant(contestantsCount, _name, 0, _party, _age, _qualification);\r\n\r\n\t\temit ContestantAdded(contestantsCount, _name, 0, _party, _age, _qualification);\r\n\t}\r\n\r\n\t// inc votes\r\n\tfunction vote(uint _contestantId) public {\r\n\t\trequire(_contestantId > 0 && _contestantId<=contestantsCount);\r\n\t\t\tcontestants[_contestantId].voteCount++;\r\n\r\n\t\temit Voted(_contestantId, contestants[_contestantId].name, contestants[_contestantId].voteCount, contestants[_contestantId].party, contestants[_contestantId].age, contestants[_contestantId].qualification);\r\n\t}\r\n\r\n\r\n} \t\r\n\r\n",
  "sourcePath": "C:\\Ankush\\Work\\VoteBlock\\VoteBlock-app\\contracts\\Contest.sol",
  "compiler": {
    "name": "solc",
    "version": "0.5.16+commit.9c3226ce.Emscripten.clang"
  },
  "schemaVersion": "3.4.10",
  "updatedAt": "2022-11-04T15:15:00.659Z",
  "networkType": "ethereum",
  "devdoc": {
    "methods": {}
  },
  "userdoc": {
    "methods": {}
  }
}